:100000000C9462000C948A000C948A000C948A0070
:100010000C948A000C948A000C948A000C948A0038
:100020000C948A000C948A000C948A000C94C604E8
:100030000C948A000C948A000C948A000C948A0018
:100040000C947C040C948A000C948A000C948A0012
:100050000C948A000C948A000C948A000C948A00F8
:100060000C948A000C948A000000000024002700F1
:100070002A0000000000250028002B0000000000DE
:1000800023002600290004040404040404040202DA
:100090000202020203030303030301020408102007
:1000A0004080010204081020010204081020000012
:1000B0000008000201000003040700000000000027
:1000C0000000D10611241FBECFEFD8E0DEBFCDBFA8
:1000D00011E0A0E0B1E0E2EBFFE002C005900D927C
:1000E000A834B107D9F721E0A8E4B1E001C01D921E
:1000F000A739B207E1F710E0C2E6D0E004C02197CB
:10010000FE010E94CC07C136D107C9F70E948705BE
:100110000C94D7070C940000833081F028F48130D0
:1001200099F08230A1F008958730A9F08830B9F0B5
:100130008430D1F4809180008F7D03C08091800055
:100140008F7780938000089584B58F7702C084B53F
:100150008F7D84BD08958091B0008F7703C080911A
:10016000B0008F7D8093B0000895CF93DF93282F48
:1001700030E0F901E255FF4F8491F901E656FF4F57
:10018000D491F901EA57FF4FC491CC2391F081112A
:100190000E948C00EC2FF0E0EE0FFF1FE458FF4FA1
:1001A000A591B491EC91ED2381E090E021F480E001
:1001B00002C080E090E0DF91CF9108951F93CF932C
:1001C000DF93282F30E0F901E255FF4F8491F901C8
:1001D000E656FF4FD491F901EA57FF4FC491CC2363
:1001E000C1F0162F81110E948C00EC2FF0E0EE0F71
:1001F000FF1FEE58FF4FA591B4919FB7F8941111CE
:1002000004C08C91D095D82302C0EC91DE2BDC93F6
:100210009FBFDF91CF911F910895CF93DF9390E01F
:10022000FC01E656FF4F2491FC01EA57FF4F8491F1
:10023000882361F190E0880F991FFC01E859FF4F76
:10024000C591D491FC01EE58FF4FA591B491611175
:1002500009C09FB7F8948881209582238883EC9108
:100260002E230BC0623061F49FB7F8948881322F3F
:10027000309583238883EC912E2B2C939FBF06C04F
:100280008FB7F894E8812E2B28838FBFDF91CF9111
:1002900008953FB7F89480917B0190917C01A091E3
:1002A0007D01B0917E0126B5A89B05C02F3F19F0B6
:1002B0000196A11DB11D3FBFBA2FA92F982F8827E6
:1002C000820F911DA11DB11DBC01CD0142E0660F41
:1002D000771F881F991F4A95D1F708958F929F9293
:1002E000AF92BF92CF92DF92EF92FF920E944901AC
:1002F0004B015C0184E1C82ED12CE12CF12C0E9431
:100300004901DC01CB0188199909AA09BB09883E7A
:100310009340A105B10598F321E0C21AD108E10884
:10032000F10888EE880E83E0981EA11CB11CC11450
:10033000D104E104F10419F7FF90EF90DF90CF9022
:10034000BF90AF909F908F900895CF92DF92EF92E1
:10035000FF920F931F93CF93DF936C017A018B0170
:10036000C0E0D0E0CE15DF0581F0D8016D918D01A0
:10037000D601ED91FC910190F081E02DC601099527
:10038000892B11F02196EECF7E01C701DF91CF912D
:100390001F910F91FF90EF90DF90CF900895CF9332
:1003A000DF93EC0160E08E810E94DE0061E08E81CF
:1003B0000E94DE0060E08E810E94DE008BE891E00A
:1003C0000197F1F7DF91CF910895CF92DF92EF92ED
:1003D000FF920F931F93CF93DF936C017C0187E013
:1003E000E80EF11CC0E0D0E0062F10E0B8010C2EA2
:1003F00002C0759567950A94E2F76170F7018191E3
:100400007F010E94DE002196C430D10579F7C60134
:10041000DF91CF911F910F91FF90EF90DF90CF90E0
:100420000C94CF01CF92DF92EF92FF920F931F9324
:10043000CF93DF93EC01F62E642F8C810E94DE00B7
:100440008D818F3F19F060E00E94DE008F850F2DB7
:1004500010E084FF25C06E0187E0C80ED11CE12C9E
:10046000F12CB8010E2C02C0759567950A94E2F73D
:100470006170F60181916F010E94DE00FFEFEF1ABB
:10048000FF0A88E0E816F10461F7CE01DF91CF9111
:100490001F910F91FF90EF90DF90CF900C94CF01C0
:1004A000B80184E0759567958A95E1F7CE010E94C1
:1004B000E5016F2DCE01DF91CF911F910F91FF903C
:1004C000EF90DF90CF900C94E50140E0682F8FE72C
:1004D00091E00C941202CF93DF93823028F0909138
:1004E0008E01986090938E018093920110929301F7
:1004F00080E48093940180E18093950180E580936E
:10050000960161E0809183010E940D018091840138
:100510008F3F19F061E00E940D0161E0809185013B
:100520000E940D01CFE7D1E09E012F57314080910D
:100530008E0184FD03C084E090E002C088E090E07A
:100540002196281739072CF461E08E810E940D0155
:10055000EBCF8BE39DE00197F1F760E080918301A1
:100560000E94DE0060E0809185010E94DE008091A3
:1005700084018F3F19F060E00E94DE0080918E01BF
:1005800084FD20C063E08FE791E00E94E501CBE4A9
:10059000D6E4CE010197F1F763E08FE791E00E9486
:1005A000E5012197F1F763E08FE791E00E94E50113
:1005B00083E592E00197F1F762E08FE791E00E9416
:1005C000E50115C080620E9465028BE496E4019704
:1005D000F1F780918E0180620E94650283E592E0CE
:1005E0000197F1F780918E0180620E9465028091EF
:1005F0008E0180620E94650284E080938F018CE00E
:100600000E94650281E00E9465028BE39FE10197F1
:10061000F1F782E08093900186E0DF91CF910C9416
:100620006502843008F083E090919201891710F000
:100630008FEF890FE82FF0E0E158FE4F8489806842
:100640000C94650241E00E94120281E090E008955E
:10065000089580E090E00895CF92DF92EF92FF92AC
:10066000CF93DF93EC01603282E078070CF03DC05D
:1006700077FD06C0653B71052CF064EB70E002C0AD
:1006800060E070E0898128E830E06901C81AD1088B
:1006900087FDD394CC0CDD1CCC0CDD1C0D2C000C88
:1006A000EE08FF088A8128E532E0281B310987FD22
:1006B0003395220F331F220F331FC901330FAA0BAB
:1006C000BB0B9C01AD012C193D094E095F09DB01F3
:1006D0000E945F0724EB30E040E050E00E943507C5
:1006E000C20ED31EE41EF51EB60138813C3080F5E3
:1006F000298188E890E0821B910927FD9395880F56
:10070000991F880F991F6817790784F08A8148E537
:1007100052E0481B510987FD5395440F551F440F64
:10072000551FCB01461757070CF4CA010297880FD3
:10073000991F4FB7F894232F30E0F901EE0FFF1FF8
:100740002E0F3F1FF901E65BFE4F928381834FBF5F
:10075000DF91CF91FF90EF90DF90CF9008951F939E
:10076000CF93DF93EC01162F88818C3008F04EC0B8
:1007700061E0812F0E940D018881E82FF0E09F0148
:10078000220F331FE20FF31FE65BFE4F1F739081B2
:10079000907C192B108319821A826CE00E949807B2
:1007A0009CE0899FB001112440E050E09B01240FA0
:1007B000351FF901EE0FFF1F2E0F3F1FF901E65BFA
:1007C000FE4F908196FD16C04F5F5F4F4C30510534
:1007D00069F781110FC01092800082E08093810040
:1007E0001092850010928400B19A80916F0082600F
:1007F00080936F00E881F0E0CF01880F991FE80F28
:10080000F91FE65BFE4F8081806480838881DF91E1
:10081000CF911F910895009769F0FC01019000208D
:10082000E9F73197AF01481B590BBC018FE791E005
:100830000C94A50180E090E008958F929F92AF9272
:10084000BF920F931F93CF93DF93CDB7DEB7A197DE
:100850000FB6F894DEBF0FBECDBF19A2423008F428
:100860004AE08E010F5D1F4F842E912CA12CB12CDC
:10087000A50194010E946707E62FB901CA01015042
:100880001109EA3014F4E05D01C0E95CD801EC9391
:10089000232B242B252B61F7C8010E940B04A19662
:1008A0000FB6F894DEBF0FBECDBFDF91CF911F9181
:1008B0000F91BF90AF909F908F900895CF92DF924D
:1008C000EF92FF926B017C0141E06DE28FE791E0D6
:1008D0000E94120266277727CB016C197D098E09C9
:1008E0009F094AE00E941D040196FF90EF90DF905F
:1008F000CF9008950E94D2071F920F920FB60F92C9
:1009000011242F933F938F939F93AF93BF93809125
:10091000770190917801A0917901B0917A0130919D
:10092000760123E0230F2D3720F40196A11DB11D80
:1009300005C026E8230F0296A11DB11D2093760164
:100940008093770190937801A0937901B0937A0115
:1009500080917B0190917C01A0917D01B0917E01FD
:100960000196A11DB11D80937B0190937C01A09302
:100970007D01B0937E01BF91AF919F918F913F9187
:100980002F910F900FBE0F901F9018951F920F92EE
:100990000FB60F9211242F933F934F935F936F9352
:1009A0007F938F939F93AF93BF93EF93FF93809128
:1009B000490187FF05C010928500109284001BC07A
:1009C00020914901022E000C330B8091480190E0E8
:1009D0002817390784F480914901082E000C990BDF
:1009E000FC01EE0FFF1F8E0F9F1FFC01E65BFE4F09
:1009F000808186FD15C0809149018F5F80934901F8
:100A000020914901022E000C330B8091480190E0A7
:100A100028173907C4F4809149018C3064F113C060
:100A200080914901082E000C990BFC01EE0FFF1F6D
:100A30008E0F9F1FFC01E65BFE4F808160E08F738D
:100A40000E94DE00D8CF80918400909185000496AA
:100A500080349C4918F480E49CE905C080918400AE
:100A600090918500049690938900809388008FEF81
:100A7000809349013BC02091840030918500809192
:100A80004901082E000C990BFC01EE0FFF1F8E0F81
:100A90009F1FFC01E65BFE4F81819281820F931FB5
:100AA000909389008093880080914901082E000C62
:100AB000990BFC01EE0FFF1F8E0F9F1FFC01E65BE1
:100AC000FE4F808186FF12C080914901082E000CE4
:100AD000990BFC01EE0FFF1F8E0F9F1FFC01E65BC1
:100AE000FE4F808161E08F730E94DE00FF91EF91E5
:100AF000BF91AF919F918F917F916F915F914F9136
:100B00003F912F910F900FBE0F901F9018957894E2
:100B100084B5826084BD84B5816084BD85B5826002
:100B200085BD85B5816085BD80916E0081608093B3
:100B30006E0010928100809181008260809381001C
:100B4000809181008160809381008091800081602C
:100B5000809380008091B10084608093B100809187
:100B6000B00081608093B00080917A0084608093AF
:100B70007A0080917A00826080937A0080917A0076
:100B8000816080937A0080917A00806880937A00F7
:100B90001092C10065E070E081E791E00E94AF0330
:100BA00066E070E08EE691E00E94AF0360E082E0D4
:100BB0000E940D0160E087E00E940D0160E08EE080
:100BC0000E940D0160E08FE00E940D0160E080E175
:100BD0000E940D0160E081E10E940D0161E082E16F
:100BE0000E940D0161E083E10E940D0161E083E05C
:100BF0000E940D0161E084E00E940D0182E00E94EC
:100C00006B02CAE0D0E000E010E082E00E94B50094
:100C1000019769F40E946E0182E00E94B50001977D
:100C2000D9F38091740190917501019611C087E00C
:100C30000E94B500019781F40E946E0187E00E9436
:100C4000B5000197D9F380917401909175010197D6
:100C500090937501809374018EE00E94B500019716
:100C600011F461E001C060E082E10E94DE008FE0EB
:100C70000E94B500019711F461E001C060E083E1DA
:100C80000E94DE0080E10E94B500019711F461E04E
:100C900001C060E083E00E94DE0081E10E94B500B7
:100CA000019711F461E001C060E084E00E94DE0081
:100CB00080E00E9411038CE091E00E940B0480917F
:100CC000740190917501BE010E94A4079B01072E3B
:100CD000000C880B990B37FF03C00E945E0403C011
:100CE0004AE00E941D048091740190917501BE013B
:100CF0000E94A4079C01BC01990F880B990B37FF38
:100D000003C00E945E0403C04AE00E941D0480915B
:100D1000740190917501009791F464EB70E081E7A4
:100D200091E00E942C036AE570E08EE691E00E945B
:100D30002C0381E00E9411038BE191E029C08A30ED
:100D4000910591F46AE570E081E791E00E942C033F
:100D500064EB70E08EE691E00E942C0381E00E943B
:100D6000110388E291E014C0181619069CF464EB94
:100D700070E081E791E00E942C0364EB70E08EE666
:100D800091E00E942C0381E00E94110387E391E02F
:100D90000E940B040115110509F437CF0E940000D1
:100DA00034CFCF93109282011092810184E091E0C0
:100DB0009093800180937F018DE080938301CFEF3A
:100DC000C09384018CE0809385018BE08093860141
:100DD0008AE08093870189E08093880188E080938E
:100DE000890110928A0110928B0110928C0110924D
:100DF0008D0110928E0181E00E946B02809148016A
:100E00008C30A0F491E0980F909348018093710189
:100E100090E0FC01EE0FFF1F8E0F9F1FFC01E65BB1
:100E2000FE4F88EB9BE09283818302C0C0937101E7
:100E3000809148018C30A0F491E0980F9093480184
:100E400080936E0190E0FC01EE0FFF1F8E0F9F1F3D
:100E5000FC01E65BFE4F88EB9BE09283818303C03D
:100E60008FEF80936E01CF910895052E97FB1EF4AE
:100E700000940E944C0757FD07D00E94670707FCAB
:100E800003D04EF40C944C07509540953095219525
:100E90003F4F4F4F5F4F08959095809570956195A6
:100EA0007F4F8F4F9F4F08950E948907A59F900DF8
:100EB000B49F900DA49F800D911D11240895B7FF3C
:100EC0000C9454070E945407821B930B0895A1E2CF
:100ED0001A2EAA1BBB1BFD010DC0AA1FBB1FEE1FB4
:100EE000FF1FA217B307E407F50720F0A21BB30BFF
:100EF000E40BF50B661F771F881F991F1A9469F77B
:100F000060957095809590959B01AC01BD01CF01D6
:100F10000895A29FB001B39FC001A39F700D811DD2
:100F20001124911DB29F700D811D1124911D0895F2
:100F3000991B79E004C0991F961708F0961B881F2B
:100F40007A95C9F78095089597FB072E16F40094BB
:100F500007D077FD09D00E94B80707FC05D03EF402
:100F6000909581959F4F0895709561957F4F089555
:100F7000AA1BBB1B51E107C0AA1FBB1FA617B707BF
:100F800010F0A61BB70B881F991F5A95A9F78095DB
:100F90009095BC01CD010895EE0FFF1F0590F491CF
:100FA000E02D099481E090E0F8940C94D707F89430
:020FB000FFCF71
:100FB200000000002203A501290328034E6F2E6FB3
:100FC200662E63617273494E2020004E6F63617218
:100FD2007320746865726500436172732046696CA0
:100FE2006C6564202020005374696C6C205520705D
:080FF20061726B202020000059
:107E0000112484B714BE81FFF0D085E080938100F7
:107E100082E08093C00088E18093C10086E0809377
:107E2000C20080E18093C4008EE0C9D0259A86E02C
:107E300020E33CEF91E0309385002093840096BBD3
:107E4000B09BFECF1D9AA8958150A9F7CC24DD24C4
:107E500088248394B5E0AB2EA1E19A2EF3E0BF2EE7
:107E6000A2D0813461F49FD0082FAFD0023811F036
:107E7000013811F484E001C083E08DD089C08234E0
:107E800011F484E103C0853419F485E0A6D080C0E4
:107E9000853579F488D0E82EFF2485D0082F10E0AE
:107EA000102F00270E291F29000F111F8ED06801E7
:107EB0006FC0863521F484E090D080E0DECF843638
:107EC00009F040C070D06FD0082F6DD080E0C81688
:107ED00080E7D80618F4F601B7BEE895C0E0D1E017
:107EE00062D089930C17E1F7F0E0CF16F0E7DF06D8
:107EF00018F0F601B7BEE89568D007B600FCFDCFD4
:107F0000A601A0E0B1E02C9130E011968C91119780
:107F100090E0982F8827822B932B1296FA010C0160
:107F200087BEE89511244E5F5F4FF1E0A038BF0790
:107F300051F7F601A7BEE89507B600FCFDCF97BE46
:107F4000E89526C08437B1F42ED02DD0F82E2BD052
:107F50003CD0F601EF2C8F010F5F1F4F84911BD097
:107F6000EA94F801C1F70894C11CD11CFA94CF0C13
:107F7000D11C0EC0853739F428D08EE10CD085E9AC
:107F80000AD08FE07ACF813511F488E018D01DD067
:107F900080E101D065CF982F8091C00085FFFCCF94
:107FA0009093C60008958091C00087FFFCCF809118
:107FB000C00084FD01C0A8958091C6000895E0E648
:107FC000F0E098E1908380830895EDDF803219F02E
:107FD00088E0F5DFFFCF84E1DECF1F93182FE3DFCA
:107FE0001150E9F7F2DF1F91089580E0E8DFEE27F6
:047FF000FF270994CA
:027FFE00040479
:0400000300007E007B
:00000001FF
