:020000040000FA
:100000000C9462000C948A000C948A000C948A0070
:100010000C948A000C948A000C948A000C948A0038
:100020000C948A000C948A000C948A000C9454045A
:100030000C948A000C948A000C948A000C948A0018
:100040000C940A040C948A000C948A000C948A0084
:100050000C948A000C948A000C948A000C948A00F8
:100060000C948A000C948A000000000024002700F1
:100070002A0000000000250028002B0000000000DE
:1000800023002600290004040404040404040202DA
:100090000202020203030303030301020408102007
:1000A0004080010204081020010204081020000012
:1000B0000008000201000003040700000000000027
:1000C0000000940611241FBECFEFD8E0DEBFCDBFE5
:1000D00011E0A0E0B1E0EAE2FFE002C005900D927D
:1000E000A834B107D9F721E0A8E4B1E001C01D921E
:1000F000A739B207E1F710E0C2E6D0E004C02197CB
:10010000FE010E948D07C136D107C9F70E94100574
:100110000C9493070C940000AF92BF92CF92DF92A1
:10012000EF92FF920F931F93CF93DF936C017B01AC
:100130008B01040F151FEB015E01AE18BF08C0173D
:10014000D10759F06991D601ED91FC910190F081B0
:10015000E02DC6010995892B79F7C501DF91CF9173
:100160001F910F91FF90EF90DF90CF90BF90AF90D5
:100170000895833081F028F4813099F08230A9F01D
:1001800008958730A9F08830C9F08430B1F48091A7
:1001900080008F7D03C0809180008F7780938000E6
:1001A000089584B58F7784BD089584B58F7DFBCF86
:1001B0008091B0008F778093B00008958091B00057
:1001C0008F7DF9CFCF93DF93282F30E0F901E255EF
:1001D000FF4F8491F901E656FF4FD491F901EA5798
:1001E000FF4FC491CC23A1F081110E94B900EC2FE4
:1001F000F0E0EE0FFF1FE458FF4FA591B491EC9192
:10020000ED2381E090E009F480E0DF91CF91089543
:1002100080E090E0FACF1F93CF93DF93282F30E058
:10022000F901E255FF4F8491F901E656FF4FD49151
:10023000F901EA57FF4FC491CC23A9F0162F811181
:100240000E94B900EC2FF0E0EE0FFF1FEE58FF4FB9
:10025000A591B4918FB7F894EC91111108C0D09585
:10026000DE23DC938FBFDF91CF911F910895DE2BAA
:10027000F8CFCF93DF9390E0FC01E656FF4F249137
:100280008A579F4FFC0184918823D1F090E0880F1A
:10029000991FFC01E859FF4FA591B491FC01EE585C
:1002A000FF4FC591D49161110EC09FB7F8948C9106
:1002B000E22FE0958E238C932881E223E8839FBF71
:1002C000DF91CF9108958FB7F894EC91E22BEC93E6
:1002D0008FBFF6CF3FB7F89480914F0190915001B6
:1002E000A0915101B091520126B5A89B05C02F3FA6
:1002F00019F00196A11DB11D3FBFBA2FA92F982F4C
:100300008827BC01CD01620F711D811D911D42E046
:10031000660F771F881F991F4A95D1F708958F920E
:100320009F92AF92BF92CF92DF92EF92FF920E9484
:100330006A014B015C0184E1C82ED12CE12CF12C27
:100340000E946A01681979098A099B09683E73400D
:1003500081059105A8F321E0C21AD108E108F1084E
:1003600088EE880E83E0981EA11CB11CC114D10434
:10037000E104F10429F7FF90EF90DF90CF90BF9058
:10038000AF909F908F900895089590E080E0089539
:100390008F929F92AF92BF92FF920F931F93CF9332
:1003A000DF93FC01F0808BE08F1508F44AC0828156
:1003B00008E512E0081B110987FD1395000F111FB6
:1003C000000F111F8181C8E8D0E0C81BD10987FD4B
:1003D000D395CC0FDD1FCC0FDD1F4E010D2E000C71
:1003E000AA08BB089801012E000C440B550B2819D4
:1003F00039094A095B09DB010E94200724EB30E040
:1004000040E050E00E94F606820E931EA41EB51E28
:100410008C169D062CF0E801801691060CF4E40180
:100420002297CC0FDD1F2FB7F8948F2D90E0FC01A1
:10043000EE0FFF1FE80FF91FED5AFE4FD283C18365
:100440002FBFDF91CF911F910F91FF90BF90AF9081
:100450009F908F900895892B79F41092800082E00C
:10046000809381001092850010928400B19A80914F
:100470006F00826080936F0008958F929F92AF9279
:10048000BF920F931F93CF93DF93CDB7DEB7A197A2
:100490000FB6F894DEBF0FBECDBF19A2423008F4EC
:1004A0004AE08E010F5D1F4F842E912CB12CA12CA0
:1004B000A50194010E942807E62FB901CA01EA307C
:1004C00044F5E05DD801EE938D01232B242B252BE1
:1004D00079F790E080E0109769F0FD01019000202D
:1004E000E9F73197AF014A1B5B0BBD018FE791E044
:1004F0000E948C00A1960FB6F894DEBF0FBECDBF50
:10050000DF91CF911F910F91BF90AF909F908F90EF
:100510000895E95CD7CFFC0101900020E9F73197FD
:10052000AF01481B590BBC018FE791E00C948C0084
:10053000CF93DF93EC0160E08E810E940B0161E0BC
:100540008E810E940B0160E08E810E940B018BE87E
:1005500091E00197F1F7DF91CF910895CF92DF926B
:10056000EF92FF920F931F93CF93DF936C017C0167
:1005700087E0E80EF11CD0E0C0E0062F10E0B801E3
:100580000C2E02C0759567950A94E2F76170F70129
:1005900081917F010E940B012196C430D10579F72A
:1005A000C601DF91CF911F910F91FF90EF90DF90E7
:1005B000CF900C949802CF92DF92EF92FF920F931C
:1005C0001F93CF93DF93EC01F62E642F8C810E9452
:1005D0000B018D818F3F19F060E00E940B010F2D00
:1005E00010E08F8584FF25C06E0187E0C80ED11C06
:1005F000F12CE12CB8010E2C02C0759567950A9478
:10060000E2F76170F60181916F010E940B01FFEF2B
:10061000EF1AFF0A88E0E816F10461F7CE01DF91D6
:10062000CF911F910F91FF90EF90DF90CF900C949E
:100630009802B80184E0759567958A95E1F7CE0137
:100640000E94AE026F2DCE01DF91CF911F910F91CD
:10065000FF90EF90DF90CF900C94AE0240E0682FB7
:100660008FE791E00C94DB02CF93DF93823029F483
:1006700090918E01986090938E01809392011092D8
:10068000930180E48093940180E18093950180E55B
:100690008093960161E0809183010E9439018091ED
:1006A00084018F3F19F061E00E94390161E080917F
:1006B00085010E943901CFE7D1E09E012F573140DB
:1006C00080918E0184FD0BC084E090E02196281774
:1006D000390744F461E08E810E943901EECF88E051
:1006E00090E0F4CF8BE39DE00197F1F760E080911B
:1006F00083010E940B0160E0809185010E940B0143
:10070000809184018F3F19F060E00E940B0180917D
:100710008E0184FD39C063E08FE791E00E94AE0254
:10072000CBE4D6E4CE010197F1F763E08FE791E0E7
:100730000E94AE022197F1F763E08FE791E00E94FB
:10074000AE0283E592E00197F1F762E08FE791E076
:100750000E94AE0280918E0180620E942E0384E08E
:1007600080938F018CE00E942E0381E00E942E0373
:100770008BE39FE10197F1F782E08093900186E09F
:10078000DF91CF910C942E0380620E942E038BE4A4
:1007900096E40197F1F780918E0180620E942E030A
:1007A00083E592E00197F1F780918E0180620E94CB
:1007B0002E03D0CF90919201891710F08FEF890FFF
:1007C000E82FF0E0E158FE4F848980680C942E03F6
:1007D00041E00E94DB0281E090E00895CF92DF9239
:1007E000EF92FF926B017C0141E06DE28FE791E0B7
:1007F0000E94DB0266277727CB016C197D098E09E1
:100800009F094AE00E943D020196FF90EF90DF9021
:10081000CF9008951F920F920FB60F9211242F932D
:100820003F938F939F93AF93BF9380914B01909190
:100830004C01A0914D01B0914E0130914A0123E04D
:10084000230F2D3758F50196A11DB11D20934A01A4
:1008500080934B0190934C01A0934D01B0934E01B6
:1008600080914F0190915001A0915101B09152019E
:100870000196A11DB11D80934F0190935001A0934B
:100880005101B0935201BF91AF919F918F913F91D0
:100890002F910F900FBE0F901F90189526E8230FF1
:1008A0000296A11DB11DD2CF1F920F920FB60F92CB
:1008B00011242F933F934F935F936F937F938F9365
:1008C0009F93AF93BF93CF93DF93EF93FF93809169
:1008D0004901C0914801D0E087FF24C010928500F3
:1008E00010928400809149018F5F8093490180912B
:1008F0004901082E000C990B8C179D0724F4809158
:1009000049018C30C4F18091840090918500049657
:1009100080349C4908F47AC08091840090918500CD
:10092000049676C080914901082E000C990B8C1713
:100930009D07C4F6E09149018E2FEE0F990BFC0143
:10094000EE0FFF1FE80FF91FED5AFE4F808186FF63
:10095000C9CFE09149018E2FEE0F990BFC01EE0FEC
:10096000FF1FE80FF91FED5AFE4F808160E08F7383
:100970000E940B01B7CF2091840030918500E09157
:1009800049018E2FEE0F990BFC01EE0FFF1FE80FB0
:10099000F91FED5AFE4F81819281820F931F909330
:1009A000890080938800E09149018E2FEE0F990B0A
:1009B000FC01EE0FFF1FE80FF91FED5AFE4F80817B
:1009C00086FF11C0E09149018E2FEE0F990BFC01BB
:1009D000EE0FFF1FE80FF91FED5AFE4F808161E017
:1009E0008F730E940B01FF91EF91DF91CF91BF9127
:1009F000AF919F918F917F916F915F914F913F91B7
:100A00002F910F900FBE0F901F90189580E49CE9D6
:100A100090938900809388008FEF80934901E3CF02
:100A2000789484B5826084BD84B5816084BD85B5C9
:100A3000826085BD85B5816085BD80916E008160D5
:100A400080936E001092810080918100826080937B
:100A5000810080918100816080938100809180007D
:100A60008160809380008091B10084608093B100A8
:100A70008091B00081608093B00080917A008460A2
:100A800080937A0080917A00826080937A008091CE
:100A90007A00816080937A0080917A0080688093E8
:100AA0007A001092C10080917A018C3008F043C026
:100AB00061E085E00E94390180917A01282F30E0C1
:100AC000F901EE0FFF1FE20FF31FED5AFE4F908169
:100AD000907C9560908310927B0110927C012CE0B9
:100AE000622F0E94590790E0829FB001112430E0EC
:100AF00020E0AB01420F531FFA01EE0FFF1FE40F7E
:100B0000F51FED5AFE4F408146FD07C02F5F3F4F56
:100B10002C30310571F70E942B02E0917A018E2F63
:100B200090E0FC01EE0FFF1FE80FF91FED5AFE4F9A
:100B3000808180648083809177018C3008F043C08D
:100B400061E086E00E94390180917701282F30E032
:100B5000F901EE0FFF1FE20FF31FED5AFE4F9081D8
:100B6000907C9660908310927801109279012CE02D
:100B7000622F0E94590790E0829FB001112430E05B
:100B800020E0AB01420F531FFA01EE0FFF1FE40FED
:100B9000F51FED5AFE4F408146FD07C02F5F3F4FC6
:100BA0002C30310571F70E942B02E09177018E2FD6
:100BB00090E0FC01EE0FFF1FE80FF91FED5AFE4F0A
:100BC00080818064808360E082E00E94390160E07F
:100BD00087E00E94390182E00E943403CAE0D0E03D
:100BE00000E010E082E00E94E200019709F057C0A7
:100BF0000E948F0182E00E94E2000197D9F3809168
:100C00007D0190917E01019690937E0180937D01FC
:100C100080E00E94DA038CE091E00E948B028091D8
:100C20007D0190917E01BE010E9465079B01072E08
:100C3000000C880B990B37FF45C00E94EE03809192
:100C40007D0190917E01BE010E9465079C01BC015F
:100C5000990F880B990B37FF39C00E94EE038091E2
:100C60007D0190917E010097A9F564EB70E08AE721
:100C700091E00E94C8016AE570E087E791E00E9478
:100C8000C80181E00E94DA038BE191E00E948B02AF
:100C90000115110509F4A6CF0E940000A3CF87E03B
:100CA0000E94E200019709F0B3CF0E948F0187E014
:100CB0000E94E2000197D9F380917D0190917E011D
:100CC0000197A2CF4AE00E943D02B9CF4AE00E94BC
:100CD0003D02C5CF8A30910591F46AE570E08AE75C
:100CE00091E00E94C80164EB70E087E791E00E9408
:100CF000C80181E00E94DA0388E291E0C7CF1816AC
:100D0000190634F664EB70E08AE791E00E94C801AE
:100D100064EB70E087E791E00E94C80181E00E94E7
:100D2000DA0387E391E0B2CFCF9310928201109261
:100D3000810184E091E09093800180937F018DE0B8
:100D400080938301CFEFC09384018CE08093850171
:100D50008BE0809386018AE08093870189E080930D
:100D6000880188E08093890110928A0110928B019A
:100D700010928C0110928D0110928E0181E00E94E0
:100D80003403809148018C3050F591E0980F909396
:100D9000480180937A0190E0FC01EE0FFF1FE80FFD
:100DA000F91FED5AFE4F88EB9BE09283818380917F
:100DB00048018C30B8F491E0980F909348018093EB
:100DC000770190E0FC01EE0FFF1FE80FF91FED5ACD
:100DD000FE4F88EB9BE092838183CF910895C0936F
:100DE0007A01E5CF8FEF80937701F7CF052E97FB40
:100DF0001EF400940E940D0757FD07D00E9428079B
:100E000007FC03D04EF40C940D0750954095309597
:100E100021953F4F4F4F5F4F089590958095709566
:100E200061957F4F8F4F9F4F08950E944A07A59F5E
:100E3000900DB49F900DA49F800D911D11240895D5
:100E4000B7FF0C9415070E941507821B930B08959A
:100E5000A1E21A2EAA1BBB1BFD010DC0AA1FBB1FBE
:100E6000EE1FFF1FA217B307E407F50720F0A21B30
:100E7000B30BE40BF50B661F771F881F991F1A949D
:100E800069F760957095809590959B01AC01BD01C7
:100E9000CF010895A29FB001B39FC001A39F700D21
:100EA000811D1124911DB29F700D811D1124911D72
:100EB0000895991B79E004C0991F961708F0961BB6
:100EC000881F7A95C9F78095089597FB072E16F429
:100ED000009407D077FD09D00E94790707FC05D060
:100EE0003EF4909581959F4F0895709561957F4F41
:100EF0000895AA1BBB1B51E107C0AA1FBB1FA61761
:100F0000B70710F0A61BB70B881F991F5A95A9F7B2
:100F100080959095BC01CD010895EE0FFF1F0590BF
:100F2000F491E02D0994F894FFCF00000000E8034D
:100F30008C00C501C4014E6F2E6F662E6361727303
:100F4000494E2020004E6F63617273207468657291
:100F50006500436172732046696C6C6564202020D3
:100F6000005374696C6C2055207061726B202020D6
:020F700000007F
:107E0000112484B714BE81FFF0D085E080938100F7
:107E100082E08093C00088E18093C10086E0809377
:107E2000C20080E18093C4008EE0C9D0259A86E02C
:107E300020E33CEF91E0309385002093840096BBD3
:107E4000B09BFECF1D9AA8958150A9F7CC24DD24C4
:107E500088248394B5E0AB2EA1E19A2EF3E0BF2EE7
:107E6000A2D0813461F49FD0082FAFD0023811F036
:107E7000013811F484E001C083E08DD089C08234E0
:107E800011F484E103C0853419F485E0A6D080C0E4
:107E9000853579F488D0E82EFF2485D0082F10E0AE
:107EA000102F00270E291F29000F111F8ED06801E7
:107EB0006FC0863521F484E090D080E0DECF843638
:107EC00009F040C070D06FD0082F6DD080E0C81688
:107ED00080E7D80618F4F601B7BEE895C0E0D1E017
:107EE00062D089930C17E1F7F0E0CF16F0E7DF06D8
:107EF00018F0F601B7BEE89568D007B600FCFDCFD4
:107F0000A601A0E0B1E02C9130E011968C91119780
:107F100090E0982F8827822B932B1296FA010C0160
:107F200087BEE89511244E5F5F4FF1E0A038BF0790
:107F300051F7F601A7BEE89507B600FCFDCF97BE46
:107F4000E89526C08437B1F42ED02DD0F82E2BD052
:107F50003CD0F601EF2C8F010F5F1F4F84911BD097
:107F6000EA94F801C1F70894C11CD11CFA94CF0C13
:107F7000D11C0EC0853739F428D08EE10CD085E9AC
:107F80000AD08FE07ACF813511F488E018D01DD067
:107F900080E101D065CF982F8091C00085FFFCCF94
:107FA0009093C60008958091C00087FFFCCF809118
:107FB000C00084FD01C0A8958091C6000895E0E648
:107FC000F0E098E1908380830895EDDF803219F02E
:107FD00088E0F5DFFFCF84E1DECF1F93182FE3DFCA
:107FE0001150E9F7F2DF1F91089580E0E8DFEE27F6
:047FF000FF270994CA
:027FFE00040479
:00000001FF
